:020000040000FA
:100000000C946B000C9493000C9493000C9493004C
:100010000C9493000C9493000C9493000C94930014
:100020000C9493000C9493000C9493000C94930004
:100030000C9493000C9493000C9493000C949300F4
:100040000C94AE040C9493000C941E050C94F804CC
:100050000C9493000C9493000C9493000C949300D4
:100060000C9450050C94930073756D206368656360
:100070006B206661696C656421000000000024004B
:1000800027002A0000000000250028002B000000A7
:1000900000002300260029000404040404040404CE
:1000A0000202020202020303030303030102040823
:1000B00010204080010204081020010204081020D2
:1000C0000000000800020100000304070000000017
:1000D000000000006B0611241FBECFEFD8E0DEBF8A
:1000E000CDBF11E0A0E0B1E0E4E0F8E102C005908E
:1000F0000D92AA35B107D9F722E0AAE5B1E001C017
:100100001D92A338B207E1F710E0CBE6D0E004C0BF
:100110002197FE010E94FA0BCA36D107C9F70E9447
:1001200098060C94000C0C940000833081F028F4A5
:10013000813099F08230A9F008958730A9F0883095
:10014000C9F08430B1F4809180008F7D03C080912C
:1001500080008F7780938000089584B58F7784BD69
:10016000089584B58F7DFBCF8091B0008F77809309
:10017000B00008958091B0008F7DF9CFCF93DF93C9
:10018000282F30E0F901E054FF4F8491F901E45544
:10019000FF4FD491F901E856FF4FC491CC23A1F051
:1001A00081110E949500EC2FF0E0EE0FFF1FE25747
:1001B000FF4FA591B491EC91ED2381E090E009F41B
:1001C00080E0DF91CF91089580E090E0FACF1F9317
:1001D000CF93DF93282F30E0F901E054FF4F849153
:1001E000F901E455FF4FD491F901E856FF4FC4914E
:1001F000CC23A9F0162F81110E949500EC2FF0E07E
:10020000EE0FFF1FEC57FF4FA591B4918FB7F894F5
:10021000EC91111108C0D095DE23DC938FBFDF91E4
:10022000CF911F910895DE2BF8CFCF93DF9390E00D
:10023000FC01E455FF4F249188569F4FFC018491A7
:100240008823D1F090E0880F991FFC01E658FF4FFA
:10025000A591B491FC01EC57FF4FC591D491611168
:100260000EC09FB7F8948C91E22FE0958E238C936B
:100270002881E223E8839FBFDF91CF9108958FB754
:10028000F894EC91E22BEC938FBFF6CF3FB7F89444
:100290008091E2019091E301A091E401B091E50128
:1002A00026B5A89B05C02F3F19F00196A11DB11DD1
:1002B0003FBFBA2FA92F982F8827BC01CD01620F0D
:1002C000711D811D911D42E0660F771F881F991FC8
:1002D0004A95D1F708958F929F92AF92BF92CF9295
:1002E000DF92EF92FF924B015C010E9446016B018D
:1002F0007C010E9446016C197D098E099F09683EA8
:10030000734081059105A8F321E0821A9108A108A4
:10031000B10888EEC80E83E0D81EE11CF11C8114E0
:100320009104A104B10429F7FF90EF90DF90CF90E2
:10033000BF90AF909F908F900895AF92BF92CF9251
:10034000DF92EF92FF920F931F93CF93DF936C0195
:100350007B018B01040F151FEB015E01AE18BF0876
:10036000C017D10759F06991D601ED91FC91019028
:10037000F081E02DC6010995892B79F7C501DF9140
:10038000CF911F910F91FF90EF90DF90CF90BF9092
:10039000AF900895FC01538D448D252F30E0842FBC
:1003A00090E0821B930B541710F0CF96089501979D
:1003B0000895FC01918D828D981761F0A28DAE0F8A
:1003C000BF2FB11D5D968C91928D9F5F9F73928F11
:1003D00090E008958FEF9FEF0895FC01918D828D3D
:1003E000981731F0828DE80FF11D858D90E008950A
:1003F0008FEF9FEF0895FC01918D228D892F90E062
:10040000805C9F4F821B91098F739927089586EE18
:1004100091E00E94FB0121E0892B09F420E0822F6A
:10042000089580E090E0892B29F00E940702811155
:100430000C9400000895FC01A48DA80FB92FB11DE4
:10044000A35ABF4F2C91848D90E001968F7399270A
:10045000848FA689B7892C93A089B1898C918370E8
:1004600080648C93938D848D981306C00288F389E1
:10047000E02D80818F7D80830895EF92FF920F930E
:100480001F93CF93DF93EC0181E0888F9B8D8C8D40
:1004900098131AC0E889F989808185FF15C09FB734
:1004A000F894EE89FF896083E889F98980818370F7
:1004B000806480839FBF81E090E0DF91CF911F91A6
:1004C0000F91FF90EF900895F62E0B8D10E00F5FC7
:1004D0001F4F0F731127E02E8C8D8E110CC00FB69D
:1004E00007FCFACFE889F989808185FFF5CFCE0135
:1004F0000E941B02F1CFEB8DEC0FFD2FF11DE35A93
:10050000FF4FF0829FB7F8940B8FEA89FB898081B7
:100510008062CFCFCF93DF93EC01888D8823B9F031
:10052000AA89BB89E889F9898C9185FD03C08081FE
:1005300086FD0DC00FB607FCF7CF8C9185FFF2CF7B
:10054000808185FFEDCFCE010E941B02E9CFDF91B4
:10055000CF91089520918101260F3327331F213237
:100560003105ECF42091A501FC0190E080E02430FD
:1005700069F082E00895A09181012191AC014F5969
:100580005E4FA40FB52FB11D2C930196861798F3DB
:1005900080918101680F6093810180E0089581E07E
:1005A000089508958FEF9FEF08958FEF9FEF0895BF
:1005B00080915A0190E09195819591090895CF938A
:1005C000DF93CB01EA01642F0E94AA02CE01DF91E2
:1005D000CF910895CF93DF931F92CDB7DEB7698394
:1005E00061E0CE0101960E94AA0281E090E00F90A6
:1005F000DF91CF91089590E080E00895FC01019093
:100600000020E9F73197AF01481B590BBC0186EE7A
:1006100091E00C949D018F929F92AF92BF920F93A5
:100620001F93CF93DF93CDB7DEB7A1970FB6F894A2
:10063000DEBF0FBECDBF19A2423008F44AE08E01E2
:100640000F5D1F4F842E912CB12CA12CA50194017C
:100650000E948609E62FB901CA01EA30F4F4E05D90
:10066000D801EE938D01232B242B252B79F790E0D5
:1006700080E0109719F0CD010E94FE02A1960FB6FE
:10068000F894DEBF0FBECDBFDF91CF911F910F91C8
:10069000BF90AF909F908F900895E95CE1CFCF938A
:1006A000DF930E94FE02EC0182E191E00E94FE02D3
:1006B0008C0F9D1FDF91CF9108954F925F926F92A3
:1006C0007F928F929F92AF92BF92CF92DF92EF92E2
:1006D000FF920F931F93CF936B017C01742EAC019B
:1006E0009B010E94F50B882399F085E191E0CF9161
:1006F0001F910F91FF90EF90DF90CF90BF90AF9040
:100700009F908F907F906F905F904F900C94FE021F
:1007100046015701E894B7F82FEF3FEF4FE75FE747
:10072000C501B4010E94F50B81110DC02FEF3FEF01
:100730004FE75FE7C501B4010E94240A18161CF4B4
:1007400089E191E0D4CF2FEF3FEF4FE75FE4C7019E
:10075000B6010E94830B18161CF48DE191E0C7CFFF
:100760002FEF3FEF4FE75FECC701B6010E94240A6D
:1007700087FDF3CF20E030E0A901C701B6010E9458
:10078000240A10E000E087FF0AC06DE286EE91E0E7
:100790000E943D028C01F7FAF094F7F8F094C0E063
:1007A00060E070E080E09FE37C1641F020E030E004
:1007B00040E251E40E94290ACF5FF6CFA7019601DB
:1007C0000E94B8092B013C010E94A20A4B015C0166
:1007D0004AE00E940B037C01E00EF11ECC23C1F124
:1007E000C501B4010E94D10A9B01AC01C301B20151
:1007F0000E94B7094B015C016EE286EE91E00E9417
:100800003D02E80EF91EC15018F120E030E040E250
:1008100051E4C501B4010E94880B2B013C010E94E8
:10082000A20A4B01B12CA12C4AE0C501B4010E94DF
:100830000B03E80EF91EC501B4010E94D10A9B0109
:10084000AC01C301B2010E94B7094B015C01DBCFCF
:10085000C701CF911F910F91FF90EF90DF90CF9044
:10086000BF90AF909F908F907F906F905F904F90D0
:1008700008951F93CF93DF9385ED8093BC00809103
:100880005D0190915E01A0915F01B09160010796BA
:10089000A11DB11D23E0B695A795979587952A953B
:1008A000D1F72091BC0024FD03C01092A50152C0D5
:1008B00040915D0150915E0160915F017091600116
:1008C000452B462B472B69F30097A105B10541F055
:1008D0002AE22A95F1F700C00197A109B109E1CFF9
:1008E00080915C01C1E0C0935B01882399F1D091B4
:1008F000B8001091BA008091BC008A7B8093BC0044
:1009000060E082E10E94E70060E083E10E94E7008E
:100910001092A501C093A7011092A60161E082E1A7
:100920000E94E70061E083E10E94E7008091B90046
:100930008E7F8093B9008091B9008D7F8093B9003C
:1009400088E48093B80085E48093BC001093BA00DB
:10095000D093B800DF91CF911F9108951F920F920D
:100960000FB60F9211242F933F938F939F93AF93C2
:10097000BF938091DE019091DF01A091E001B091E1
:10098000E1013091DD0123E0230F2D3758F5019669
:10099000A11DB11D2093DD018093DE019093DF0145
:1009A000A093E001B093E1018091E2019091E30115
:1009B000A091E401B091E5010196A11DB11D8093C4
:1009C000E2019093E301A093E401B093E501BF91AC
:1009D000AF919F918F913F912F910F900FBE0F90EC
:1009E0001F90189526E8230F0296A11DB11DD2CFA6
:1009F0001F920F920FB60F9211242F933F934F9394
:100A00005F936F937F938F939F93AF93BF93EF9376
:100A1000FF9386EE91E00E941B02FF91EF91BF9140
:100A2000AF919F918F917F916F915F914F913F9186
:100A30002F910F900FBE0F901F9018951F920F923D
:100A40000FB60F9211242F938F939F93EF93FF93E1
:100A5000E091F601F091F7018081E091FC01F091C5
:100A6000FD0182FD1BC090818091FF018F5F8F731C
:100A700020910002821741F0E091FF01F0E0EA517D
:100A8000FE4F958F8093FF01FF91EF919F918F9182
:100A90002F910F900FBE0F901F9018958081F4CF6B
:100AA0001F920F920FB60F9211242F933F934F93E3
:100AB0005F936F937F938F939F93AF93BF93EF93C6
:100AC000FF938091B900887F803609F44AC0F0F521
:100AD000883209F4A5C018F5803109F499C0B8F43A
:100AE000882309F4F5C0883009F492C0FF91EF9192
:100AF000BF91AF919F918F917F916F915F914F9136
:100B00003F912F910F900FBE0F901F901895883135
:100B100009F486C0803251F78093A40114C0803458
:100B200009F49BC040F48033B9F38833F9F680931D
:100B3000A40185ECAEC0803509F483C0883509F482
:100B400094C0883499F60E943904D0CF883909F4CA
:100B50008AC038F5883729F050F4883611F080378C
:100B600029F683E08093A5011092A30155C088382F
:100B700009F479C0803919F0803809F0B7CF809135
:100B8000A301803208F06FC0E091A30181E08E0FD5
:100B90008093A3018091BB00F0E0ED57FE4F80836E
:100BA0003BC0803B39F0D0F4803A09F477C0883AF2
:100BB00009F09CCF84E08093A501109282011092ED
:100BC0008101F0E0E0E009958091810181110FC081
:100BD00081E0809381011092610109C0803C09F499
:100BE000A8CF883C09F4A5CF883B09F07FCFE091DE
:100BF000820181E08E0F80938201F0E0EF59FE4F79
:100C000080818093BB00909182018091810129C0F5
:100C10008091CA018093BB0085EC8093BC0066CFB5
:100C20009091C9018091C801981758F5E091C901C8
:100C300081E08E0F8093C901F0E0E855FE4F80817E
:100C4000E9CFE091C90181E08E0F8093C9018091C5
:100C5000BB00F0E0E855FE4F80839091C901809180
:100C6000C8019817C8F285E8D8CFE091C90181E0A2
:100C70008E0F8093C9018091BB00F0E0E855FE4FD4
:100C800080838091A70181115ECF81E08093A601CE
:100C900084EA8093BC001092A50128CF85EC809354
:100CA000BC001092A5018091A301803230F4E09144
:100CB000A301F0E0ED57FE4F10826091A30170E0B8
:100CC00083E891E0F0E0E0E009951092A3010ECFF7
:100CD0001092A40138CFE6EEF1E01382128288EE82
:100CE00093E0A0E0B0E084839583A683B78384E09B
:100CF00091E09183808385EC90E09587848784ECF4
:100D000090E09787868780EC90E0918B808B81ECD8
:100D100090E0938B828B82EC90E0958B848B86ECB9
:100D200090E0978B868B118E128E138E148E089501
:100D3000CF93DF93CDB7DEB7AE970FB6F894DEBF93
:100D40000FBECDBF789484B5826084BD84B58160C8
:100D500084BD85B5826085BD85B5816085BD809186
:100D60006E00816080936E001092810080918100FE
:100D700082608093810080918100816080938100F6
:100D8000809180008160809380008091B1008460B8
:100D90008093B1008091B00081608093B000809119
:100DA0007A00846080937A0080917A0082608093D8
:100DB0007A0080917A00816080937A0080917A0035
:100DC000806880937A001092C100E091F601F09162
:100DD000F70182E08083E091F201F091F30110824B
:100DE000E091F401F091F5018FEC80831092FE0107
:100DF000E091FA01F091FB0186E08083E091F80137
:100E0000F091F901808180618083E091F801F09197
:100E1000F901808188608083E091F801F091F90107
:100E2000808180688083E091F801F091F9018081F0
:100E30008F7D808360E085E00E94150161E085E0A0
:100E40000E94E70061E089E00E9415019E012F5F8A
:100E50003F4F79016E0139E1C30ED11CCE0181965D
:100E60009AA789A7FE013996FCA7EBA79E012F5EE2
:100E70003F4F3EA72DA75AE0852E912CA12CB12CD7
:100E8000370138E2630E711C88E2F70111928A95EE
:100E9000E9F761E085E00E94150160E085E00E94CD
:100EA000E70062E170E080E090E00E946B0161E0A9
:100EB00085E00E94E70060E085E00E9415018BE973
:100EC00090E00197F1F785E00E94BE00019709F0DC
:100ED0009CC081E291E00E944F0320E030E048ECAA
:100EE00051E46091D9017091DA018091DB01909118
:100EF000DC010E94B7091B012C0120E030E0A901B0
:100F00000E94830B18160CF088C1C201B1010E9427
:100F10009B0AAFEFB0E09B01AC010E947B09A501E9
:100F200094010E945C09522E432E022F132F10931E
:100F3000D4010093D30161E089E00E9415010115FD
:100F4000110509F06EC160E089E00E94E70068EBDE
:100F50007BE080E090E00E946B0184E191E00E94E0
:100F60004F0381E391E00E94FE026091D9017091EC
:100F7000DA018091DB019091DC0142E00E945D0387
:100F80008FE391E00E944F0381E491E00E94FE0212
:100F90006091D5017091D6018091D7019091D801CF
:100FA00042E00E945D0382E191E00E94FE028CE437
:100FB00091E00E94FE026091D3017091D401072E4E
:100FC000000C880B990B0E94D30A20E030E048EC1B
:100FD00052E40E94880B20E030E04FE753E40E9487
:100FE000290A42E00E945D0388E591E00E944F03D8
:100FF00020E030E0232B09F447CF0E94070288232A
:1010000009F43ECF0E9400003BCF85E00E94BE0065
:10101000892BD9F385E00E94BE000197D9F310E037
:1010200000E05524539485E00E94BE00892BD9F33B
:1010300083E790E00197F1F785E00E94BE000197F9
:1010400049F4F701E00FF11F508285E00E94BE00D5
:101050000197D9F30F5F1F4F0832110521F72FB702
:10106000F8948091DE019091DF01A091E001B091B0
:10107000E1012FBF4091CF015091D0016091D1018A
:101080007091D201841B950BA60BB70B843691058A
:10109000A105B10508F421CFFE01719610E000E032
:1010A000000F111F8191813009F40160EC15FD05DD
:1010B000B9F7F60150E040E0440F551F81918130AF
:1010C00009F4416029A53AA5E217F307A9F72FB75C
:1010D000F8948091DE019091DF01A091E001B09140
:1010E000E1012FBF2090CB013090CC014090CD0189
:1010F0005090CE0182199309A409B509883C910545
:10110000A105B10508F475C0F70190E080E0880FF3
:10111000991F2191213009F481602BA53CA5E2178C
:10112000F307A9F7FE01399670E060E0660F771FBC
:101130002191213009F461602DA53EA5E217F30746
:10114000A9F7FE01B19630E020E0220F331FA191F4
:10115000A13009F421606E167F06B9F7040F151F40
:10116000A801460F571F480F591F4217530781F018
:1011700008E610E0F8016491662309F4AECE86EE2D
:1011800091E00E943D020F5F1F4F892B99F7A5CE7A
:10119000680F791F072E000C880B990B0E94D30A49
:1011A0006093D5017093D6018093D7019093D801B5
:1011B000B801110F880B990B0E94D30A6093D901D3
:1011C0007093DA018093DB019093DC012FB7F894E0
:1011D0008091DE019091DF01A091E001B091E101E9
:1011E0002FBF8093CB019093CC01A093CD01B093FE
:1011F000CE012FB7F8948091DE019091DF01A0918C
:10120000E001B091E1012FBF8093CF019093D00115
:10121000A093D101B093D20160CEC201B101905828
:1012200076CE0F3F110511F461E08ECEE9ECF0E0CF
:101230008491833029F140F48130C1F08230D9F0BB
:10124000003811058CF77FCE873031F1883061F19D
:101250008430B1F780918000806280938000852D7A
:10126000942D90938B0080938A0071CE84B5806812
:1012700084BD57BC6CCE84B5806284BD58BC67CE3B
:1012800080918000806880938000852D942D9093BC
:101290008900809388005BCE8091B0008068809345
:1012A000B0005092B30053CE8091B0008062809322
:1012B000B0005092B4004BCE052E97FB1EF4009464
:1012C0000E94730957FD07D00E94860907FC03D0CE
:1012D0004EF40C94730950954095309521953F4FED
:1012E0004F4F5F4F089590958095709561957F4F12
:1012F0008F4F9F4F08950E94A809A59F900DB49FFE
:10130000900DA49F800D911D11240895A1E21A2E25
:10131000AA1BBB1BFD010DC0AA1FBB1FEE1FFF1F99
:10132000A217B307E407F50720F0A21BB30BE40BE9
:10133000F50B661F771F881F991F1A9469F7609530
:101340007095809590959B01AC01BD01CF010895EA
:10135000A29FB001B39FC001A39F700D811D1124F6
:10136000911DB29F700D811D1124911D089550583B
:10137000BB27AA270E94CF090C94490B0E943B0B64
:1013800038F00E94420B20F039F49F3F19F426F404
:101390000C94380B0EF4E095E7FB0C94320BE92F1C
:1013A0000E945A0B58F3BA17620773078407950710
:1013B00020F079F4A6F50C947C0B0EF4E0950B2E3E
:1013C000BA2FA02D0B01B90190010C01CA01A00197
:1013D0001124FF27591B99F0593F50F4503E68F1F2
:1013E0001A16F040A22F232F342F4427585FF3CF33
:1013F000469537952795A795F0405395C9F77EF404
:101400001F16BA0B620B730B840BBAF09150A1F04C
:10141000FF0FBB1F661F771F881FC2F70EC0BA0FD2
:10142000621F731F841F48F4879577956795B7955A
:10143000F7959E3F08F0B0CF9395880F08F0992755
:10144000EE0F9795879508950E940E0B08F481E0A2
:1014500008950E943D0A0C94490B0E94420B58F0DB
:101460000E943B0B40F029F45F3F29F00C94320BB3
:1014700051110C947D0B0C94380B0E945A0B68F39D
:101480009923B1F3552391F3951B550BBB27AA273D
:1014900062177307840738F09F5F5F4F220F331F77
:1014A000441FAA1FA9F335D00E2E3AF0E0E832D03F
:1014B00091505040E695001CCAF72BD0FE2F29D042
:1014C000660F771F881FBB1F261737074807AB0714
:1014D000B0E809F0BB0B802DBF01FF2793585F4F89
:1014E0003AF09E3F510578F00C94320B0C947D0B32
:1014F0005F3FE4F3983ED4F3869577956795B7956B
:10150000F7959F5FC9F7880F911D9695879597F975
:101510000895E1E0660F771F881FBB1F62177307EE
:101520008407BA0720F0621B730B840BBA0BEE1F03
:1015300088F7E09508950E94A20A6894B1110C946E
:101540007D0B08950E94620B88F09F5798F0B92F89
:101550009927B751B0F0E1F0660F771F881F991FE8
:101560001AF0BA95C9F714C0B13091F00E947C0B03
:10157000B1E008950C947C0B672F782F8827B85F13
:1015800039F0B93FCCF3869577956795B395D9F740
:101590003EF490958095709561957F4F8F4F9F4F4A
:1015A0000895E89409C097FB3EF490958095709556
:1015B00061957F4F8F4F9F4F9923A9F0F92F96E99F
:1015C000BB279395F695879577956795B795F11114
:1015D000F8CFFAF4BB0F11F460FF1BC06F5F7F4FB1
:1015E0008F4F9F4F16C0882311F096E911C07723C3
:1015F00021F09EE8872F762F05C0662371F096E8CC
:10160000862F70E060E02AF09A95660F771F881F9A
:10161000DAF7880F9695879597F90895990F00083E
:10162000550FAA0BE0E8FEEF16161706E807F907B4
:10163000C0F012161306E407F50798F0621B730B4F
:10164000840B950B39F40A2661F0232B242B252BD0
:1016500021F408950A2609F4A140A6958FEF811D73
:10166000811D089597F99F6780E870E060E0089514
:101670009FEF80EC089500240A94161617061806AA
:101680000906089500240A94121613061406050686
:101690000895092E0394000C11F4882352F0BB0F17
:1016A00040F4BF2B11F460FF04C06F5F7F4F8F4F7A
:1016B0009F4F089557FD9058440F551F59F05F3FB5
:1016C00071F04795880F97FB991F61F09F3F79F064
:1016D00087950895121613061406551FF2CF4695E6
:1016E000F1DF08C0161617061806991FF1CF869568
:1016F0007105610508940895E894BB27662777274C
:10170000CB0197F908950E940E0B08F48FEF08950E
:101710000E949B0B0C94490B0E943B0B38F00E94DB
:10172000420B20F0952311F00C94320B0C94380BE3
:1017300011240C947D0B0E945A0B70F3959FC1F3FA
:10174000950F50E0551F629FF001729FBB27F00D6F
:10175000B11D639FAA27F00DB11DAA1F649F6627C4
:10176000B00DA11D661F829F2227B00DA11D621F13
:10177000739FB00DA11D621F839FA00D611D221FCD
:10178000749F3327A00D611D231F849F600D211DB1
:10179000822F762F6A2F11249F5750409AF0F1F034
:1017A00088234AF0EE0FFF1FBB1F661F771F881F9D
:1017B00091505040A9F79E3F510580F00C94320B98
:1017C0000C947D0B5F3FE4F3983ED4F386957795B8
:1017D0006795B795F795E7959F5FC1F7FE2B880F43
:1017E000911D9695879597F908950E940E0B880B89
:1017F000990B0895EE0FFF1F0590F491E02D0994C9
:10180000F894FFCF000000003D029D01CA018A024A
:10181000FB01D901ED010D0A006E616E00696E6673
:10182000006F7666004E4F5420524553504F4E4441
:10183000494E47210054656D70657261747572651B
:101840003A2000430048756D69646974793A200054
:0E18500046616E2053706565643A20002500E5
:107E0000112484B714BE81FFF0D085E080938100F7
:107E100082E08093C00088E18093C10086E0809377
:107E2000C20080E18093C4008EE0C9D0259A86E02C
:107E300020E33CEF91E0309385002093840096BBD3
:107E4000B09BFECF1D9AA8958150A9F7CC24DD24C4
:107E500088248394B5E0AB2EA1E19A2EF3E0BF2EE7
:107E6000A2D0813461F49FD0082FAFD0023811F036
:107E7000013811F484E001C083E08DD089C08234E0
:107E800011F484E103C0853419F485E0A6D080C0E4
:107E9000853579F488D0E82EFF2485D0082F10E0AE
:107EA000102F00270E291F29000F111F8ED06801E7
:107EB0006FC0863521F484E090D080E0DECF843638
:107EC00009F040C070D06FD0082F6DD080E0C81688
:107ED00080E7D80618F4F601B7BEE895C0E0D1E017
:107EE00062D089930C17E1F7F0E0CF16F0E7DF06D8
:107EF00018F0F601B7BEE89568D007B600FCFDCFD4
:107F0000A601A0E0B1E02C9130E011968C91119780
:107F100090E0982F8827822B932B1296FA010C0160
:107F200087BEE89511244E5F5F4FF1E0A038BF0790
:107F300051F7F601A7BEE89507B600FCFDCF97BE46
:107F4000E89526C08437B1F42ED02DD0F82E2BD052
:107F50003CD0F601EF2C8F010F5F1F4F84911BD097
:107F6000EA94F801C1F70894C11CD11CFA94CF0C13
:107F7000D11C0EC0853739F428D08EE10CD085E9AC
:107F80000AD08FE07ACF813511F488E018D01DD067
:107F900080E101D065CF982F8091C00085FFFCCF94
:107FA0009093C60008958091C00087FFFCCF809118
:107FB000C00084FD01C0A8958091C6000895E0E648
:107FC000F0E098E1908380830895EDDF803219F02E
:107FD00088E0F5DFFFCF84E1DECF1F93182FE3DFCA
:107FE0001150E9F7F2DF1F91089580E0E8DFEE27F6
:047FF000FF270994CA
:027FFE00040479
:00000001FF
